:04000000004088CA6A
:20800000FFFFD11A00000001FFFED11C000000000000FFFED11E000000000000FFFFD120B1
:2080100000000000FFFFD12100000000FFFED128000088C90000FFFED12A000088C90000D0
:0C802000FFFFD12C000000000000000059
:08802600190156C3FFFF00061B
:20802A00761BFFF0E20000BDE63006002942561676256F00761BFFF0E20000BDE6300600DF
:20803A002942561676256F00761BFFF0E20000BDE63006002942561676256F00761BFFF0A9
:20804A00E20000BDE63006002942561676256F00761BFFF0E20000BDE63006002942561668
:20805A0076256F00761BFFF0E20000BDE63006002942561676256F00761BFFF0E20000BDC1
:20806A00E63006002942561676256F00761BFFF0E20000BDE63006002942561676256F00DD
:20807A00761BFFF0E20000BDE63006002942561676256F00761BFFF0E20000BDE63006008F
:20808A002942561676256F00761BFFF0E20000BDE63006002942561676256F00761BFFF059
:20809A00E20000BDE63006002942561676256F00761BFFF0E20000BDE63006002942561618
:2080AA0076256F00761BFFF0E20000BDE63006002942561676256F00761BFFF0E20000BD71
:2080BA00E63006002942561676256F00761BFFF0E20000BDE63006002942561676256F008D
:2080CA00761BFFF0E20000BDE63006002942561676256F00761BFFF0E20000BDE63006003F
:2080DA002942561676256F00761BFFF0E20000BDE63006002942561676256F00761BFFF009
:2080EA00E20000BDE63006002942561676256F00761BFFF0E20000BDE630060029425616C8
:2080FA0076256F00761BFFF0E20000BDE63006002942561676256F00761BFFF0E20000BD21
:20810A00E63006002942561676256F00761BFFF0E20000BDE63006002942561676256F003C
:20811A00761BFFF0E20000BDE63006002942561676256F00761BFFF0E20000BDE6300600EE
:20812A002942561676256F00761BFFF0E20000BDE63006002942561676256F00761BFFF0B8
:20813A00E20000BDE63006002942561676256F00761BFFF0E20000BDE63006002942561677
:20814A0076256F00761BFFF0E20000BDE63006002942561676256F00761BFFF0E20000BDD0
:20815A00E63006002942561676256F00761BFFF0E20000BDE63006002942561676256F00EC
:20816A00761BFFF0E20000BDE63006002942561676256F00761BFFF0E20000BDE63006009E
:20817A002942561676256F00761BFFF0E20000BDE63006002942561676256F00761BFFF068
:20818A00E20000BDE63006002942561676256F00761BFFF0E20000BDE63006002942561627
:20819A0076256F00761BFFF0E20000BDE63006002942561676256F00761BFFF0E20000BD80
:2081AA00E63006002942561676256F00761BFFF0E20000BDE63006002942561676256F009C
:2081BA00761BFFF0E20000BDE63006002942561676256F00761BFFF0E20000BDE63006004E
:2081CA002942561676256F00761BFFF0E20000BDE63006002942561676256F00761BFFF018
:2081DA00E20000BDE63006002942561676256F00761BFFF0E20000BDE630060029425616D7
:2081EA0076256F00761BFFF0E20000BDE63006002942561676256F00761BFFF0E20000BD30
:2081FA00E63006002942561676256F00761BFFF0E20000BDE63006002942561676256F004C
:20820A00761BFFF0E20000BDE63006002942561676256F00761BFFF0E20000BDE6300600FD
:20821A002942561676256F00761BFFF0E20000BDE63006002942561676256F00761BFFF0C7
:20822A00E20000BDE63006002942561676256F00761BFFF0E20000BDE63006002942561686
:20823A0076256F00761BFFF0E20000BDE63006002942561676256F00761BFFF0E20000BDDF
:20824A00E63006002942561676256F00761BFFF0E20000BDE63006002942561676256F00FB
:20825A00761BFFF0E20000BDE63006002942561676256F00761BFFF0E20000BDE6300600AD
:20826A002942561676256F00761BFFF0E20000BDE63006002942561676256F00761BFFF077
:20827A00E20000BDE63006002942561676256F00761BFFF0E20000BDE63006002942561636
:20828A0076256F00761BFFF0E20000BDE63006002942561676256F00761BFFF0E20000BD8F
:20829A00E63006002942561676256F00761BFFF0E20000BDE63006002942561676256F00AB
:2082AA00761BFFF0E20000BDE63006002942561676256F00761BFFF0E20000BDE63006005D
:2082BA002942561676256F00761BFFF0E20000BDE63006002942561676256F00761BFFF027
:2082CA00E20000BDE63006002942561676256F00761BFFF0E20000BDE630060029425616E6
:2082DA0076256F00761BFFF0E20000BDE63006002942561676256F00761BFFF0E20000BD3F
:2082EA00E63006002942561676256F00761BFFF0E20000BDE63006002942561676256F005B
:2082FA00761BFFF0E20000BDE63006002942561676256F00761BFFF0E20000BDE63006000D
:20830A002942561676256F00761BFFF0E20000BDE63006002942561676256F00761BFFF0D6
:20831A00E20000BDE63006002942561676256F00761BFFF0E20000BDE63006002942561695
:20832A0076256F00761BFFF0E20000BDE63006002942561676256F00761BFFF0E20000BDEE
:20833A00E63006002942561676256F00764083539A0A9B027640835B764083AC0006762242
:20834A00761F01C056BF552556BFAA25761AFF6900067622761F01C056BF6829761AFF69C0
:20835A000006FE0297429641761F01C043116C027625CC110180FFC6610576221811FE7FD3
:20836A00761A0E411EA69221900F80A906A60FA7611676221A1100409241CD21FFF0900FAA
:20837A00CAA89621761AFF697640835392119001520160FD76221811FFBF761A924252011C
:20838A0061035202600976229003CD11FE7FFF86CAA89611761A9242520360127622CC11EE
:20839A00FE7F1AA9010096118F0005DAFF69A8A976408026761F01C01A110180761AFE8246
:2083AA00FF6900067622761F01C056BF011A56BF021B761F002CCC35FFF8500196351A34D2
:2083BA0000041834FFF7761F01C01A1C0008FF6976780080761F01C01A1C00101A1C04001D
:2083CA001A1C08001A1C00201A1C01001A1C10001A1C20001A1C40001A1C80001A1D0001C8
:2083DA001A1D00021A1D00041A1D00081A1D00101A1D0020181CFFFB1A1D04001A1D08008A
:2083EA001A1D10001A1D20001A1D01001A1D02001A1D40001A1D80001A2001001A200200BF
:2083FA001A2004001A2008001A2010001A202000761AFF690006FE027622761F002B2820A1
:20840A00FFFF2821FFFF2822FFFF2823FFFF2824FFFF2825FFFF2826FFFF2827FFFF761ABE
:20841A00761FCFFF9238964192399641923A9641923B9641923C9641923D9641923E964163
:20842A00923F9641761F002B402F6D039A016F029A00FE82FF6900068F000C00761F0344E0
:20843A00A8020200761F003019011E022B062B071A0400101A0400200200761F03441E04A8
:20844A008F000C08A80A8F000C10A812761F003019011E0A761F0030020019011E12761FAB
:20845A0000302B0E2B0F761F00302B162B17761F00301A0C0010761F00301A140010761F84
:20846A0000301A0C0020761F00301A140020761F034402001E0C1E140006FE08E2030146F7
:20847A00E2030044A84206441EE48A4206461EF4E2AF0044E2AF0146E70000087700E688D8
:20848A0000007700E20300488A428AC406481ED48A428AC42BF48A428AC42BFC8A428AC440
:20849A001AE400108A428AC41AE400208A428AC418E4FBFF8A428AC418E4F7FF8A428AC446
:2084AA001AE440008A4202001ED4FE880006764083539A0A9B027640835B764083AC76224A
:2084BA00761F01C02B1B56BF011A761A7622761F002C1835FFF81834FFF71834FFFBCC3421
:2084CA0000C0FFC560FD1834FFFCCC38FFC750189638CC38FFF8500396380620900018A8D8
:2084DA00FFBC1AA994A951031E20062C900018A8FFBC1AA994A951031E2C062E900018A8D6
:2084EA00FFBC1AA994A951031E2E761AFF697640850CF60677003B1076260000762F0000D9
:2084FA00FF69764087CE76408861764084367622761F01BE02001E021E041E121E14761ABE
:20850A00FF6900067622761F01BE0200C4261AA9FFFF1AA8FFFF1E2606169B00900F1AA82E
:20851A00FFFF1AA9FFF01E1602001AA9FFFFC4281E28060891FF1AA8FF001E08761AFF69EB
:20852A000006761F034492210A215200610556BF01200B216F0A76408652764087717640EC
:20853A00865A761F03440B210006FE042842CCCD28413DCCE80218B0E2030044761F034405
:20854A002B222B237640881B764084B1761F03448A0002001EC476408783764088B8E2AFA1
:20855A000042E2AF01447640862D761F03448A00BE0006C46002BE01761F03447E2376403E
:20856A008652764088B0761F034492236111761F03448A00B600BE0006C46002BE0192A62B
:20857A006002B601761F03447F22922360F1764087A4764088B89A00FE84000628AD040073
:20858A00FF69561F5616561AE61002002940761F00002902761B764088D2520061427622C9
:20859A0028A9800028A800000901611B76C0800029046F0F9B0024A9DF016C04290424A808
:2085AA00DF011EA6F7A1248606A781A109011EA724A96303FF5C3B0459A9DF010009FFEC8A
:2085BA0028A9FFFF28A8FFFF090161058F3FFFFF7640881C761A764088D428A9FFFF28A82D
:2085CA00FFFF0901610E76FFFFFF6F06DF01C3BD1EA73E67C5BE24A9DF0124A8FF5860F7BE
:2085DA007640889E764087A7E20304BDE6950003E695000CE69D0723E6930022E585E0087C
:2085EA0080BDE00689BDE8D00000E850A009E7000012E68E0009E700011076FFF0E6E8D0FE
:2085FA00000076BFF0E4BFA90F168CA9000658ABE70000128F7FF0E2E7000098E2AF01970C
:20860A00E300599676FFF0DEE3165C95E2AE01D7E70000C37700E31702BEE6AE000BE6C1C8
:20861A000010E6A30000E6AA0000E6A4001BE312DABEE2AE04BEE6CB000BE71000C07700A9
:20862A00E6A400000006FE04E2030144E2030042E8024BA0E2AF01428F00D102E809200031
:20863A00E302084476408477761F00301804FFEF7622761F00358F0086C5A80C761A761F5A
:20864A0000331A22004076230001FF69FE8400063B10761F00331A2200402910FF690006A1
:20865A00FE022B413B109A00761F003346226C029A0196411822FFBFF6057700762FFFFE93
:20866A0056BF01212910FF69FE820006FE02964192416104764086526F037640865AFE826D
:20867A000006E20304BDE6950003E801FC04E69D0723E6930022E585E00880BDE70000D13E
:20868A00E8D00000E850A009E7000012E68E0009E700011076FFF0E6E8D0000076BFF0E4BD
:20869A00BFA90F168CA9000658ABE70000128F7FF0E2E7000098E2AF0197E300599676FF2D
:2086AA00F0DEE3165C95E2AE01D7E70000C37700E71000E0E593E6AE0000E6AA0000E2AF6B
:2086BA0002BEE2AE04BEE6CB000BE71000C07700E6A400000006761BFFF00005ABBDA8BDC2
:2086CA00A0BDC2BDC3BDE20000BDE20300BDE20301BDE20302BDE20303BDE6300600FE02EB
:2086DA00FF6929425616761F0033922296411822FFBFF6057700762FFFFE56BF0121762312
:2086EA0000012910FF697640852B3B109241761F00339622FE82E2AF03BEE2AF02BEE2AF16
:2086FA0001BEE2AF00BEE28000BEC5BEC4BE83BE8ABE87BE00033B30FFF176177602E80212
:20870A001511E80FCC19E7000040E801E24AE8087EDAE688000176BFEBDC76FFECDCBFA9B9
:20871A000F1618A901FFFF8058A9E6F10000E801F153E80D555BE3041196E302D897E86FF7
:20872A00C000E70000D37700E71000C07700E30099967700E720005B7700E306989777001F
:20873A00E71000C00006E8021511E80FCC19E7000040E801E24AE8087EDAE688000176BF4E
:20874A00ECDC76FFEBDCBFA90F1618A901FFFF8058A9E6F10000E801F153E80D555BE304AD
:20875A001196E302D897E86FC000E70000D37700E72000C07700E30099967700E71000CB33
:20876A007700E30698977700E71000C00006761F01BF9200761F0344900196246106761F22
:20877A0001BF1A0380006F05761F01BF1A0580000006761F03448A0002001EC48F00D12446
:20878A00F6002B847622761F01BE060618A9FFFC1E06060A18A9FFFE1E0A761A7622060826
:20879A0018A83FFF1E08060A1AA880001E0A761AFF690006000677006F00B2BD761F0344EC
:2087AA0059A9921A610D28ABFFFF28AAFFFF28A9FFFF28A8FFFF0FAB6103767FFFFF761FAF
:2087BA000344C5283E67761F0344061E61041EA792A13E67761F0344061C61031EA73E67F8
:2087CA00764087A58BBE00063B10761F00331820FFFE2B222B242B262B282B2A2B2C2B2ED1
:2087DA002B302B322B342B362B382B232B252B272B292B2B2B2D2B2F2B312B332B352B37DC
:2087EA002B39FF690006761F00331A2000012821FFFF2910FF690006FE02E20300427640CF
:2087FA008709FE820006FE02E20300427640873DFE820006FE02E203004276408840FE82FD
:20880A000006FE02E20300427640867BFE820006FE04E2030144E2030042764085DEFE84F6
:20881A0000060006B2BDAABDA2BDFE0882A4D1005ACB6F155CAD2901560303A107A3DC8819
:20882A0009025CA483A9020876408881064261068A448346764088815ACBD90192A254A101
:20883A0066EAFE8882BE86BE8BBE0006E6920001E84FC002E700004B7700E700009B770061
:20884A00E8CFF01B7700E70000C97700E700008B7700E70000CB7700E8CFF01BE5A0E7006E
:20885A0000C97700E6C10001E70000400006FE068F00D000A8428F000D00A84476222B450C
:20886A0092455280630D83448A42A0A9C4840902A8421E44C2C50A459245528064F5761AF2
:20887A00761F00331A200001FF69FE8600065200A8ABC5A4610788A9DE815C857C87000EF1
:20888A00FFFE88A90FA6610F5300610D9DFF5CA876BFFFFE92859687000EFFFE9285968775
:20889A00000CFFF8A9A40006020028ABFFFF28AAFFFF19010FAB60049A00D4006F05A9A45E
:2088AA0092C4A9A4DC027640853F0006761F0344922D60047608293092BE000676083B3098
:2088BA0092BE761F0344962D182D00010006761F0344A82A0006761F0344A82800060006F7
:1688CA00561F7622B9C028290068761A004085889A0100060006D5
:00000001FF
